{
  "abi": [
    {
      "inputs": [],
      "stateMutability": "nonpayable",
      "type": "constructor"
    },
    {
      "inputs": [],
      "name": "AmtUndefined",
      "type": "error"
    },
    {
      "inputs": [],
      "name": "BlockHashUndefined",
      "type": "error"
    },
    {
      "inputs": [],
      "name": "BlockHeightUndefined",
      "type": "error"
    },
    {
      "inputs": [],
      "name": "BlockTimeUndefined",
      "type": "error"
    },
    {
      "inputs": [],
      "name": "InvalidJSON",
      "type": "error"
    },
    {
      "inputs": [],
      "name": "InvalidOperation",
      "type": "error"
    },
    {
      "inputs": [],
      "name": "LimUndefined",
      "type": "error"
    },
    {
      "inputs": [],
      "name": "MaxUndefined",
      "type": "error"
    },
    {
      "inputs": [],
      "name": "OperationUndefined",
      "type": "error"
    },
    {
      "inputs": [],
      "name": "ReceiverUndefined",
      "type": "error"
    },
    {
      "inputs": [],
      "name": "SenderUndefined",
      "type": "error"
    },
    {
      "inputs": [],
      "name": "Src20AlreadyDeployed",
      "type": "error"
    },
    {
      "inputs": [],
      "name": "Src20NotFound",
      "type": "error"
    },
    {
      "inputs": [],
      "name": "SupplyDataWrong",
      "type": "error"
    },
    {
      "inputs": [],
      "name": "TickUndefined",
      "type": "error"
    },
    {
      "inputs": [],
      "name": "TxidUndefined",
      "type": "error"
    },
    {
      "inputs": [
        {
          "internalType": "string",
          "name": "inscriptionContext",
          "type": "string"
        },
        {
          "internalType": "string",
          "name": "inscription",
          "type": "string"
        }
      ],
      "name": "entryPoint",
      "outputs": [],
      "stateMutability": "nonpayable",
      "type": "function"
    },
    {
      "inputs": [
        {
          "internalType": "uint256",
          "name": "page",
          "type": "uint256"
        },
        {
          "internalType": "uint256",
          "name": "pageSize",
          "type": "uint256"
        },
        {
          "internalType": "string",
          "name": "owner",
          "type": "string"
        }
      ],
      "name": "getAllSRC20Balance",
      "outputs": [
        {
          "components": [
            {
              "internalType": "string",
              "name": "tickOrigin",
              "type": "string"
            },
            {
              "internalType": "uint64",
              "name": "amt",
              "type": "uint64"
            },
            {
              "internalType": "uint256",
              "name": "blockIndex",
              "type": "uint256"
            }
          ],
          "internalType": "struct Src20BalanceInfo[]",
          "name": "",
          "type": "tuple[]"
        }
      ],
      "stateMutability": "view",
      "type": "function"
    },
    {
      "inputs": [
        {
          "internalType": "uint256",
          "name": "page",
          "type": "uint256"
        },
        {
          "internalType": "uint256",
          "name": "pageSize",
          "type": "uint256"
        }
      ],
      "name": "getSRC20AllTokenInfo",
      "outputs": [
        {
          "components": [
            {
              "internalType": "string",
              "name": "tickOrigin",
              "type": "string"
            },
            {
              "internalType": "uint64",
              "name": "max",
              "type": "uint64"
            },
            {
              "internalType": "uint64",
              "name": "lim",
              "type": "uint64"
            },
            {
              "internalType": "uint64",
              "name": "amt",
              "type": "uint64"
            },
            {
              "internalType": "uint8",
              "name": "dec",
              "type": "uint8"
            },
            {
              "internalType": "string",
              "name": "creator",
              "type": "string"
            },
            {
              "internalType": "bytes32",
              "name": "txHash",
              "type": "bytes32"
            },
            {
              "internalType": "uint256",
              "name": "blockIndex",
              "type": "uint256"
            },
            {
              "internalType": "uint256",
              "name": "blockTime",
              "type": "uint256"
            }
          ],
          "internalType": "struct Src20TokenInfo[]",
          "name": "",
          "type": "tuple[]"
        }
      ],
      "stateMutability": "view",
      "type": "function"
    },
    {
      "inputs": [
        {
          "internalType": "string",
          "name": "addr",
          "type": "string"
        },
        {
          "internalType": "string",
          "name": "tickOrigin",
          "type": "string"
        }
      ],
      "name": "getSRC20Balance",
      "outputs": [
        {
          "components": [
            {
              "internalType": "string",
              "name": "tickOrigin",
              "type": "string"
            },
            {
              "internalType": "uint64",
              "name": "amt",
              "type": "uint64"
            },
            {
              "internalType": "uint256",
              "name": "blockIndex",
              "type": "uint256"
            }
          ],
          "internalType": "struct Src20BalanceInfo",
          "name": "",
          "type": "tuple"
        }
      ],
      "stateMutability": "view",
      "type": "function"
    },
    {
      "inputs": [
        {
          "internalType": "string",
          "name": "tickOrigin",
          "type": "string"
        }
      ],
      "name": "getSRC20TokenInfo",
      "outputs": [
        {
          "components": [
            {
              "internalType": "string",
              "name": "tickOrigin",
              "type": "string"
            },
            {
              "internalType": "uint64",
              "name": "max",
              "type": "uint64"
            },
            {
              "internalType": "uint64",
              "name": "lim",
              "type": "uint64"
            },
            {
              "internalType": "uint64",
              "name": "amt",
              "type": "uint64"
            },
            {
              "internalType": "uint8",
              "name": "dec",
              "type": "uint8"
            },
            {
              "internalType": "string",
              "name": "creator",
              "type": "string"
            },
            {
              "internalType": "bytes32",
              "name": "txHash",
              "type": "bytes32"
            },
            {
              "internalType": "uint256",
              "name": "blockIndex",
              "type": "uint256"
            },
            {
              "internalType": "uint256",
              "name": "blockTime",
              "type": "uint256"
            }
          ],
          "internalType": "struct Src20TokenInfo",
          "name": "",
          "type": "tuple"
        }
      ],
      "stateMutability": "view",
      "type": "function"
    },
    {
      "inputs": [],
      "name": "plugin",
      "outputs": [
        {
          "internalType": "address",
          "name": "",
          "type": "address"
        }
      ],
      "stateMutability": "view",
      "type": "function"
    },
    {
      "inputs": [
        {
          "internalType": "string",
          "name": "",
          "type": "string"
        }
      ],
      "name": "src20s",
      "outputs": [
        {
          "internalType": "address",
          "name": "",
          "type": "address"
        }
      ],
      "stateMutability": "view",
      "type": "function"
    }
  ],
  "bytecode": {
    "object": "0x608060405234801561001057600080fd5b50615136806100206000396000f3fe60806040523480156200001157600080fd5b5060043610620000875760003560e01c80638a689e8f11620000625780638a689e8f1462000131578063b0586ada1462000157578063ccaf8a951462000170578063ef01df4f146200019657600080fd5b80637887dddd146200008c5780637b9d878e14620000bb578063888de4f0146200010b575b600080fd5b620000a36200009d3660046200331e565b620001aa565b604051620000b2919062003405565b60405180910390f35b620000f2620000cc3660046200346b565b80516020818301810180516000825292820191909301209152546001600160a01b031681565b6040516001600160a01b039091168152602001620000b2565b620001226200011c366004620034a3565b620005f7565b604051620000b2919062003591565b6200014862000142366004620035ea565b620007db565b604051620000b2919062003654565b6200016e62000168366004620035ea565b6200094b565b005b62000187620001813660046200346b565b620009f3565b604051620000b2919062003669565b600154620000f2906001600160a01b031681565b60606000600583604051620001c091906200367e565b9081526020016040518091039020805480602002602001604051908101604052809291908181526020016000905b82821015620002a457838290600052602060002001805462000210906200369c565b80601f01602080910402602001604051908101604052809291908181526020018280546200023e906200369c565b80156200028f5780601f1062000263576101008083540402835291602001916200028f565b820191906000526020600020905b8154815290600101906020018083116200027157829003601f168201915b505050505081526020019060010190620001ee565b5050505090508051600003620003175760408051600080825260208201909252906200030d565b620002f960405180606001604052806060815260200160006001600160401b03168152602001600081525090565b815260200190600190039081620002cb5790505b50915050620005f0565b600080620003288787855162000a08565b91509150808203620003995760408051600080825260208201909252906200038d565b6200037960405180606001604052806060815260200160006001600160401b03168152602001600081525090565b8152602001906001900390816200034b5790505b509350505050620005f0565b6000620003a78383620036e8565b6001600160401b03811115620003c157620003c162003274565b6040519080825280602002602001820160405280156200042257816020015b6200040e60405180606001604052806060815260200160006001600160401b03168152602001600081525090565b815260200190600190039081620003e05790505b509050825b82811015620005e9576000620004598683815181106200044b576200044b620036fe565b602002602001015162000a79565b905060006001600160a01b03166000826040516200047891906200367e565b908152604051908190036020019020546001600160a01b031603620004b05760405163767ee0c960e11b815260040160405180910390fd5b60008082604051620004c391906200367e565b908152604051908190036020018120546335ee5f8760e01b82526001600160a01b0316906335ee5f8790620004fd908c9060040162003714565b602060405180830381865afa1580156200051b573d6000803e3d6000fd5b505050506040513d601f19601f8201168201806040525081019062000541919062003729565b90506040518060600160405280888581518110620005635762000563620036fe565b60200260200101518152602001826001600160401b031681526020016002846040516200059191906200367e565b90815260405190819003602001902060040154905284620005b38886620036e8565b81518110620005c657620005c6620036fe565b602002602001018190525050508080620005e09062003754565b91505062000427565b5093505050505b9392505050565b60606000806200060e858560038054905062000a08565b915091508082036200065a5760408051600080825260208201909252906200064f565b6200063b620031c2565b815260200190600190039081620006315790505b5092505050620007d5565b6000620006688383620036e8565b6001600160401b0381111562000682576200068262003274565b604051908082528060200260200182016040528015620006bf57816020015b620006ab620031c2565b815260200190600190039081620006a15790505b509050825b82811015620007cf5760006200078a60038381548110620006e957620006e9620036fe565b90600052602060002001805462000700906200369c565b80601f01602080910402602001604051908101604052809291908181526020018280546200072e906200369c565b80156200077f5780601f1062000753576101008083540402835291602001916200077f565b820191906000526020600020905b8154815290600101906020018083116200076157829003601f168201915b505050505062000a88565b905080836200079a8785620036e8565b81518110620007ad57620007ad620036fe565b6020026020010181905250508080620007c69062003754565b915050620006c4565b50925050505b92915050565b6200080960405180606001604052806060815260200160006001600160401b03168152602001600081525090565b6000620008168362000a79565b905060006001600160a01b03166000826040516200083591906200367e565b908152604051908190036020019020546001600160a01b0316036200086d5760405163767ee0c960e11b815260040160405180910390fd5b60405180606001604052808481526020016000836040516200089091906200367e565b908152604051908190036020018120546335ee5f8760e01b82526001600160a01b0316906335ee5f8790620008ca90899060040162003714565b602060405180830381865afa158015620008e8573d6000803e3d6000fd5b505050506040513d601f19601f820116820180604052508101906200090e919062003729565b6001600160401b031681526020016002836040516200092e91906200367e565b908152604051908190036020019020600401549052949350505050565b6000620009588262000da4565b9050600081600281111562000971576200097162003770565b03620009885762000983828462000f6b565b505050565b60018160028111156200099f576200099f62003770565b03620009b15762000983828462001250565b6002816002811115620009c857620009c862003770565b03620009da57620009838284620013ad565b604051631cc6a69960e11b815260040160405180910390fd5b620009fd620031c2565b620007d58262000a88565b600080601e84111562000a1a57601e93505b60008462000a2a600188620036e8565b62000a36919062003786565b9050600062000a46868862003786565b905084821062000a5f5760008093509350505062000a71565b8481111562000a6b5750835b90925090505b935093915050565b6060620007d5826000620015c2565b62000a92620031c2565b600062000a9f8362000a79565b905060006001600160a01b031660008260405162000abe91906200367e565b908152604051908190036020019020546001600160a01b03160362000af65760405163767ee0c960e11b815260040160405180910390fd5b60028160405162000b0891906200367e565b908152604051908190036020018120600101546001600160401b03600160801b909104169060009062000b3d9084906200367e565b9081526040805160209281900383018120546318160ddd60e01b825291516001600160a01b03909216926318160ddd926004808401938290030181865afa15801562000b8d573d6000803e3d6000fd5b505050506040513d601f19601f8201168201806040525081019062000bb3919062003729565b6001600160401b03161462000bdb576040516382ad796f60e01b815260040160405180910390fd5b60028160405162000bed91906200367e565b90815260200160405180910390206040518061012001604052908160008201805462000c19906200369c565b80601f016020809104026020016040519081016040528092919081815260200182805462000c47906200369c565b801562000c985780601f1062000c6c5761010080835404028352916020019162000c98565b820191906000526020600020905b81548152906001019060200180831162000c7a57829003601f168201915b505050918352505060018201546001600160401b038082166020840152600160401b820481166040840152600160801b8204166060830152600160c01b900460ff16608082015260028201805460a09092019162000cf6906200369c565b80601f016020809104026020016040519081016040528092919081815260200182805462000d24906200369c565b801562000d755780601f1062000d495761010080835404028352916020019162000d75565b820191906000526020600020905b81548152906001019060200180831162000d5757829003601f168201915b505050505081526020016003820154815260200160048201548152602001600582015481525050915050919050565b60008062000db2836200162e565b905062000dbf8162001649565b62000ddd576040516332fb134d60e01b815260040160405180910390fd5b62000e1a62000e12604051806040016040528060048152602001631137b81160e11b81525083620017d090919063ffffffff16565b516007161590565b1562000e3957604051636d2a509960e01b815260040160405180910390fd5b600062000e7662000e70604051806040016040528060048152602001631137b81160e11b81525084620017d090919063ffffffff16565b6200183e565b905062000ead60405180604001604052806008815260200167113232b83637bc9160c11b815250826200184f90919063ffffffff16565b1562000ebd575060009392505050565b6040805180820190915260068152651136b4b73a1160d11b6020918201528151908201207f62835bcd00b03e3ef73ae1d4692b0dcd3f584f248069fc1e9f798e8d4ccd94290362000f12575060019392505050565b60408051808201909152600a815269113a3930b739b332b91160b11b6020918201528151908201207f881ee0ffe6c7d624f7808a070e79642d0ae2df235367ac426bca9767d23b082f03620009da575060029392505050565b600062000f788362001865565b9050600062000f878362001b27565b9050600062000f9a836000015162000a79565b905060006001600160a01b031660008260405162000fb991906200367e565b908152604051908190036020019020546001600160a01b03161462000ff15760405163166d3fb760e11b815260040160405180910390fd5b60008360000151846020015185604001518660600151866020015187604001516040516200101f906200320d565b6200103096959493929190620037a0565b604051809103906000f0801580156200104d573d6000803e3d6000fd5b509050806000836040516200106391906200367e565b908152602001604051809103902060006101000a8154816001600160a01b0302191690836001600160a01b0316021790555060006040518061012001604052808660000151815260200186602001516001600160401b0316815260200186604001516001600160401b0316815260200160006001600160401b03168152602001866060015160ff16815260200185604001518152602001856000015181526020018560600151815260200185608001518152509050806002846040516200112b91906200367e565b908152604051908190036020019020815181906200114a90826200385e565b50602082015160018201805460408501516060860151608087015160ff16600160c01b0260ff60c01b196001600160401b03928316600160801b021668ffffffffffffffffff60801b19938316600160401b026fffffffffffffffffffffffffffffffff19909516929096169190911792909217169290921791909117905560a08201516002820190620011df90826200385e565b5060c082015160038083019190915560e0830151600483015561010090920151600590910155855181546001810183556000929092527fc2575a0e9e593c00f959f8c92f12db2869c3395a3b0502d05e2516446f71f85b909101906200124690826200385e565b5050505050505050565b60006200125e838362001f4e565b9050600062001271826000015162000a79565b9050600080826040516200128691906200367e565b908152604051908190036020019020546001600160a01b0316905080620012c05760405163767ee0c960e11b815260040160405180910390fd5b604051636c13468760e01b81526001600160a01b03821690636c13468790620012ee90869060040162003998565b600060405180830381600087803b1580156200130957600080fd5b505af11580156200131e573d6000803e3d6000fd5b5050505082606001516002836040516200133991906200367e565b90815260405190819003602001902060010180546010906200136e9084906001600160401b03600160801b90910416620039ad565b92506101000a8154816001600160401b0302191690836001600160401b03160217905550620013a683604001518460000151620020fd565b5050505050565b6000620013bb838362001f4e565b90506000620013ce826000015162000a79565b905060008082604051620013e391906200367e565b908152604051908190036020019020546001600160a01b03169050806200141d5760405163767ee0c960e11b815260040160405180910390fd5b604051636e9e5a4960e11b81526001600160a01b0382169063dd3cb492906200144b90869060040162003998565b600060405180830381600087803b1580156200146657600080fd5b505af11580156200147b573d6000803e3d6000fd5b5050505060208301516040516335ee5f8760e01b81526000916001600160a01b038416916335ee5f8791620014b39160040162003714565b602060405180830381865afa158015620014d1573d6000803e3d6000fd5b505050506040513d601f19601f82011682018060405250810190620014f7919062003729565b9050806001600160401b03166000036200151b576200151b84602001518462002209565b60408085015190516335ee5f8760e01b81526000916001600160a01b038516916335ee5f87916200154f9160040162003714565b602060405180830381865afa1580156200156d573d6000803e3d6000fd5b505050506040513d601f19601f8201168201806040525081019062001593919062003729565b90506001600160401b03811615620015b957620015b985604001518660000151620020fd565b50505050505050565b606082518015620016275760206040510191506001840193506303ffffff8360051b6046011b600019825b81018681015160ff1683811c6020168118868301535080620015ed5750505060405191508082528060208301016000815260208101604052505b5092915050565b6040805160008082529181905290620005f08360ff620024a8565b600080620016578362002cfc565b90506000816001600160401b0381111562001676576200167662003274565b604051908082528060200260200182016040528015620016a0578160200160208202803683370190505b5090506000620016b08562002d15565b905060005b838110156200172457620016e5828281518110620016d757620016d7620036fe565b602002602001015162002d24565b8051906020012060001c838281518110620017045762001704620036fe565b6020908102919091010152806200171b8162003754565b915050620016b5565b5060005b83811015620017c457600062001740826001620039d0565b90505b84811015620017ae57838181518110620017615762001761620036fe565b60200260200101518483815181106200177e576200177e620036fe565b60200260200101510362001799575060009695505050505050565b80620017a58162003754565b91505062001743565b5080620017bb8162003754565b91505062001728565b50600195945050505050565b604080516000815290528151606090600716600203620007d557815160208301206000620017fe8562002d15565b805190915060051b5b80156200183557818101519550601f190182620018248762002d24565b805190602001200362001807578593505b50505092915050565b60606000620005f0836000620024a8565b8051602091820120825192909101919091201490565b60408051608081018252606080825260006020830181905292820183905281018290529062001894836200162e565b9050620018cd62000e1260405180604001604052806006815260200165113a34b1b59160d11b81525083620017d090919063ffffffff16565b15620018ec57604051631156adb160e21b815260040160405180910390fd5b6200192262000e12604051806040016040528060058152602001641136b0bc1160d91b81525083620017d090919063ffffffff16565b1562001941576040516304af937b60e31b815260040160405180910390fd5b6200197762000e1260405180604001604052806005815260200164113634b69160d91b81525083620017d090919063ffffffff16565b15620019965760405163699be87360e01b815260040160405180910390fd5b6000620019ce62000e1260405180604001604052806005815260200164113232b19160d91b81525084620017d090919063ffffffff16565b15620019dc57601262001a26565b62001a2662001a2062001a1a62000e7060405180604001604052806005815260200164113232b19160d91b81525086620017d090919063ffffffff16565b62002d46565b62002e48565b9050604051806080016040528062001a7462001a6e62000e7060405180604001604052806006815260200165113a34b1b59160d11b81525087620017d090919063ffffffff16565b62002e62565b815260200162001abd62001ab762001a1a62000e70604051806040016040528060058152602001641136b0bc1160d91b81525088620017d090919063ffffffff16565b62003115565b6001600160401b0316815260200162001b0962001ab762001a1a62000e7060405180604001604052806005815260200164113634b69160d91b81525088620017d090919063ffffffff16565b6001600160401b031681526020018260ff1681525092505050919050565b62001b676040518060c001604052806000801916815260200160608152602001606081526020016000815260200160008152602001600080191681525090565b600062001b74836200162e565b905062001bad62000e1260405180604001604052806006815260200165113a3c34b21160d11b81525083620017d090919063ffffffff16565b1562001bcc5760405163d72e417960e01b815260040160405180910390fd5b62001c0562000e12604051806040016040528060088152602001671139b2b73232b91160c11b81525083620017d090919063ffffffff16565b1562001c245760405163418163a760e01b815260040160405180910390fd5b62001c5f62000e126040518060400160405280600a815260200169113932b1b2b4bb32b91160b11b81525083620017d090919063ffffffff16565b1562001c7e576040516307d5348b60e51b815260040160405180910390fd5b62001cbd62000e126040518060400160405280600e81526020016d11313637b1b5afb432b4b3b43a1160911b81525083620017d090919063ffffffff16565b1562001cdc5760405163313897b560e11b815260040160405180910390fd5b62001d1962000e126040518060400160405280600c81526020016b11313637b1b5afba34b6b29160a11b81525083620017d090919063ffffffff16565b1562001d385760405163178f4b8b60e31b815260040160405180910390fd5b62001d7562000e126040518060400160405280600c81526020016b11313637b1b5afb430b9b41160a11b81525083620017d090919063ffffffff16565b1562001d94576040516334880f0f60e11b815260040160405180910390fd5b6040518060c0016040528062001de462001dde62001a6e62000e7060405180604001604052806006815260200165113a3c34b21160d11b81525087620017d090919063ffffffff16565b6200312d565b60001b815260200162001e2962001a6e62000e70604051806040016040528060088152602001671139b2b73232b91160c11b81525086620017d090919063ffffffff16565b815260200162001e6d62001a6e62000e706040518060400160405280600a815260200169113932b1b2b4bb32b91160b11b81525086620017d090919063ffffffff16565b815260200162001eb562001a1a62000e706040518060400160405280600e81526020016d11313637b1b5afb432b4b3b43a1160911b81525086620017d090919063ffffffff16565b815260200162001efb62001a1a62000e706040518060400160405280600c81526020016b11313637b1b5afba34b6b29160a11b81525086620017d090919063ffffffff16565b815260200162001f4562001dde62001a6e62000e706040518060400160405280600c81526020016b11313637b1b5afb430b9b41160a11b81525087620017d090919063ffffffff16565b90529392505050565b62001f83604051806080016040528060608152602001606081526020016060815260200160006001600160401b031681525090565b600062001f90846200162e565b905062001fc962000e1260405180604001604052806006815260200165113a34b1b59160d11b81525083620017d090919063ffffffff16565b1562001fe857604051631156adb160e21b815260040160405180910390fd5b6200201e62000e12604051806040016040528060058152602001641130b6ba1160d91b81525083620017d090919063ffffffff16565b156200203d57604051632b8f603360e01b815260040160405180910390fd5b60006200204a8462001b27565b905060405180608001604052806200209262001a6e62000e7060405180604001604052806006815260200165113a34b1b59160d11b81525087620017d090919063ffffffff16565b81526020018260200151815260200182604001518152602001620020e962001ab762001a1a62000e70604051806040016040528060058152602001641130b6ba1160d91b81525088620017d090919063ffffffff16565b6001600160401b0316905295945050505050565b60006200210a8262000a79565b90506004836040516200211e91906200367e565b9081526020016040518091039020816040516200213c91906200367e565b90815260200160405180910390205460000362000983576005836040516200216591906200367e565b9081526040519081900360200190205462002182906001620039d0565b6004846040516200219491906200367e565b908152602001604051809103902082604051620021b291906200367e565b908152602001604051809103902081905550600583604051620021d691906200367e565b9081526040516020918190038201902080546001810182556000918252919020016200220383826200385e565b50505050565b60006004836040516200221d91906200367e565b9081526020016040518091039020826040516200223b91906200367e565b9081526020016040518091039020549050806000146200098357600060016005856040516200226b91906200367e565b90815260405190819003602001902054620022879190620036e8565b905062002296816001620039d0565b82146200240e576000600585604051620022b191906200367e565b90815260200160405180910390208281548110620022d357620022d3620036fe565b906000526020600020018054620022ea906200369c565b80601f016020809104026020016040519081016040528092919081815260200182805462002318906200369c565b8015620023695780601f106200233d5761010080835404028352916020019162002369565b820191906000526020600020905b8154815290600101906020018083116200234b57829003601f168201915b50505050509050806005866040516200238391906200367e565b9081526040519081900360200190206200239f600186620036e8565b81548110620023b257620023b2620036fe565b906000526020600020019081620023ca91906200385e565b5082600486604051620023de91906200367e565b908152602001604051809103902082604051620023fc91906200367e565b90815260405190819003602001902055505b6005846040516200242091906200367e565b9081526020016040518091039020805480620024405762002440620039e6565b6001900381819060005260206000200160006200245e91906200321b565b90556004846040516200247291906200367e565b9081526020016040518091039020836040516200249091906200367e565b90815260200160405180910390206000905550505050565b600062002c49565b63101827966000526004601cfd5b805b6001640100002600620024d4835160001a90565b1c1615620007d557600101620024c0565b63ffffffff83113d3d3e63ffffffff821b191691901b1790565b6040516200252584860360786200251f601f1986890301605888620024e5565b620024e5565b959095178552505050602082016040525090565b6000806200254c846018600051620024e5565b620025588787620024be565b9150868210620025695750620026af565b815160001a60228103620025a157826200258689858589620028fc565b93506200259860048583868a620024ff565b9450506200269e565b605b8103620025c257620025b888848488620026b8565b935093506200269e565b607b8103620025d957620025b88884848862002798565b6703ff200000000000811c60011615620025fb57620025b888848488620029e6565b8760048401116200265d5782835160e01c6374727565810362002638576004850194506200262e60058684878b620024ff565b955050506200269e565b636e756c6c81036200265a576004850194506200262e60068684878b620024ff565b50505b876005840111620026945782835160d81c6466616c7365810362002691576005850194506200262e60058684878b620024ff565b50505b6200269e620024b0565b5050620026ac8682620024be565b90505b94509492505050565b600060018401815b868210620026d257620026d2620024b0565b82620026fb57620026e48783620024be565b9150605d620026f4835160001a90565b1462002769575b620027098783858762002539565b9250925082156200275957620027268160988551604017620024e5565b835260010162002737825160001a90565b605d810362002747575062002769565b602c81036200275757506200275d565b505b8691505b600182019150620026c0565b506001016200277b82603886620024e5565b93506200278d600182878787620024ff565b915094509492505050565b6000600184015b858110620027b157620027b1620024b0565b81620027da57620027c38682620024be565b9050607d620027d3825160001a90565b1462002891575b620027e68682620024be565b905080620027f787838587620028fc565b620028038882620024be565b9250603a62002813845160001a90565b0362002882576200282a8860018501868862002539565b93509350831562002882576200285560208601830360986200251f85850360b88951608017620024e5565b8452825160001a607d81036200286e5750505062002891565b602c8103620028805750505062002888565b505b50508590505b6001016200279f565b600101620028a282603886620024e5565b93506200278d600282878787620024ff565b6001667e0000007e03ff6030620028ce8585015160001a90565b031c16620028e057620028e0620024b0565b60058214620028f857620028f86001830182620028b4565b5050565b50506000828210620029125762002912620024b0565b50600181015b805160001a602281036200292d575062002993565b605c811462002940575060010162002918565b600182015160001a905060016a0510110400000000002001602283031c16156200296e575060020162002918565b607581036200298e5762002984600283620028b4565b5060060162002918565b508290505b828110620029a557620029a5620024b0565b60010192915050565b805b600a6030620029c0835160001a90565b031015620029d157600101620029b0565b808214841615620005f057620005f0620024b0565b600083602d620029f7825160001a90565b0362002a01576001015b600a603062002a11835160001a90565b031062002a225762002a22620024b0565b805160001a6001820191506030811462002a475762002a4460008884620029ae565b91505b50602e62002a56825160001a90565b0362002a705762002a6d60018760018401620029ae565b90505b805160658160001a6020170362002aa25762002a9f6001886001850162010001600e8660011a031a01620029ae565b91505b506200278d600382878787620024ff565b60405190820190601f19601f850181165b838101518382015281018062002ac45750508381526000846020830101528360408201016040529392505050565b848362002ab3565b50919050565b80516060906002816007161162002afa57821581151762002afa57602081161562002b3857603881901c63ffffffff16915062002afa565b604051915060208201603882901c63ffffffff165b801562002b83578082528051601881901c63ffffffff1662002b7287601884620024e5565b909252506020919091019062002b4d565b50601f1983820381018060051c85528260405262002ba485603886620024e5565b93508360201786526040811062002bd9576020850192508085015b8351815185528152602090930192820180841062002bbf57505b50505050919050565b805160609082158115171562002bf9575062002c41565b80841c63ffffffff16915080861662002c3f5760d881901c63ffffffff1662002c2a82871c63ffffffff1662002af2565b92505062002c3a828583620024e5565b861783525b505b949350505050565b81801562002cc7576001811462002ce0576003811462002cf157602084018451810180821462002ca957805160001a6022825362002c8e8760d8601160f91b620024e5565b60005262002ca0828460008a62002539565b93509450808253505b8315818310171562002cbf5762002cbf620024b0565b505062001627565b62002cd86010607860588762002be2565b915062001627565b62002cd8600860b860988762002be2565b62002c418462002b00565b60008062002d0d835b6003620024a8565b519392505050565b60606000620005f08362002d05565b80516060906080161562002d41576000620005f0836001620024a8565b919050565b6000818180805b835181101562002e3e57603084828151811062002d6e5762002d6e620036fe565b016020015160f81c1080159062002da25750603984828151811062002d975762002d97620036fe565b016020015160f81c11155b1562002dff578162002e3e5762002dbb600a8462003786565b9250603084828151811062002dd45762002dd4620036fe565b016020015162002de8919060f81c620039fc565b62002df79060ff1684620039d0565b925062002e29565b83818151811062002e145762002e14620036fe565b016020015160f81c602e0362002e2957600191505b8062002e358162003754565b91505062002d4d565b5090949350505050565b6000610100821062002e5e5762002e5e620031b4565b5090565b606062002fda565b60008060048301905083811115835160005b6004811462002ecb57603082821a0383667e0000007e03ff821c1662002ea65762002ea6620024b0565b6030811160051b6007601083110201900360049590951b949094019360010162002e7c565b5050509250929050565b60008062002ee4848462002e6a565b9150915061dbff821161d80083101762002f30578051615c758160f01c148502945062002f15856002840162002e6a565b92509050806103ff16836103ff16600a1b0162010000019250505b9250929050565b6000607f831162002f50578282535060018101620007d5565b82601f538260061c601e536107ff831162002f8157600051611f3f1661c0801760f01b8252600282019050620007d5565b82600c1c601d5361ffff831162002fb057600051620f3f3f1662e080801760e81b8252600382019050620007d5565b8260121c601c535060005163073f3f3f1663f08080801760e01b81526211000090911060021b0190565b8151808301601f01805160001a600285015161ff001617612222146001831116620030095762003009620024b0565b6020604051019150602184015b818114620030f557805160001a600182019150605c81146200304f57602281146200304b578084536001840193505062003016565b8291505b50818114620030eb57805160001a6001918201916b100000000000800400000000821c161562003089578084536001840193505062003016565b60758103620030b7576200309e838362002ed5565b92509050620030ae818562002f37565b93505062003016565b72080000000c000000000000000a0000000d00096054199091011a8015620030e9578084536001840193505062003016565b505b620030f5620024b0565b505060008152604051915060208201810382526020810160405250919050565b6000600160401b821062002e5e5762002e5e620031b4565b600081516001811160208085015160f01c17613078141660011b5b6001810190507403010a071000000b0104040208000c05090d060e0f6d03e4088843e41bac00000000000060ff83870151161c601f161a8360fc1c8115171583029250600181038460041b019350508181106200314857508062002afa5763101827966000526004601cfd5b6335278d126000526004601cfd5b604080516101208101825260608082526000602083018190529282018390528082018390526080820183905260a082015260c0810182905260e0810182905261010081019190915290565b6116e88062003a1983390190565b50805462003229906200369c565b6000825580601f106200323a575050565b601f0160209004906000526020600020908101906200325a91906200325d565b50565b5b8082111562002e5e57600081556001016200325e565b634e487b7160e01b600052604160045260246000fd5b600082601f8301126200329c57600080fd5b81356001600160401b0380821115620032b957620032b962003274565b604051601f8301601f19908116603f01168101908282118183101715620032e457620032e462003274565b81604052838152866020858801011115620032fe57600080fd5b836020870160208301376000602085830101528094505050505092915050565b6000806000606084860312156200333457600080fd5b833592506020840135915060408401356001600160401b038111156200335957600080fd5b62003367868287016200328a565b9150509250925092565b60005b838110156200338e57818101518382015260200162003374565b50506000910152565b60008151808452620033b181602086016020860162003371565b601f01601f19169290920160200192915050565b6000815160608452620033dc606085018262003397565b90506001600160401b036020840151166020850152604083015160408501528091505092915050565b6000602080830181845280855180835260408601915060408160051b870101925083870160005b828110156200345e57603f198886030184526200344b858351620033c5565b945092850192908501906001016200342c565b5092979650505050505050565b6000602082840312156200347e57600080fd5b81356001600160401b038111156200349557600080fd5b62002c41848285016200328a565b60008060408385031215620034b757600080fd5b50508035926020909101359150565b60006101208251818552620034de8286018262003397565b9150506020830151620034fc60208601826001600160401b03169052565b5060408301516200351860408601826001600160401b03169052565b5060608301516200353460608601826001600160401b03169052565b5060808301516200354a608086018260ff169052565b5060a083015184820360a086015262003564828262003397565b91505060c083015160c085015260e083015160e08501526101008084015181860152508091505092915050565b6000602080830181845280855180835260408601915060408160051b870101925083870160005b828110156200345e57603f19888603018452620035d7858351620034c6565b94509285019290850190600101620035b8565b60008060408385031215620035fe57600080fd5b82356001600160401b03808211156200361657600080fd5b62003624868387016200328a565b935060208501359150808211156200363b57600080fd5b506200364a858286016200328a565b9150509250929050565b602081526000620005f06020830184620033c5565b602081526000620005f06020830184620034c6565b600082516200369281846020870162003371565b9190910192915050565b600181811c90821680620036b157607f821691505b60208210810362002afa57634e487b7160e01b600052602260045260246000fd5b634e487b7160e01b600052601160045260246000fd5b81810381811115620007d557620007d5620036d2565b634e487b7160e01b600052603260045260246000fd5b602081526000620005f0602083018462003397565b6000602082840312156200373c57600080fd5b81516001600160401b0381168114620005f057600080fd5b600060018201620037695762003769620036d2565b5060010190565b634e487b7160e01b600052602160045260246000fd5b8082028115828204841417620007d557620007d5620036d2565b60c081526000620037b560c083018962003397565b6001600160401b0388811660208501528716604084015260ff861660608401528281036080840152620037e9818662003397565b905082810360a0840152620037ff818562003397565b9998505050505050505050565b601f8211156200098357600081815260208120601f850160051c81016020861015620038355750805b601f850160051c820191505b81811015620038565782815560010162003841565b505050505050565b81516001600160401b038111156200387a576200387a62003274565b62003892816200388b84546200369c565b846200380c565b602080601f831160018114620038ca5760008415620038b15750858301515b600019600386901b1c1916600185901b17855562003856565b600085815260208120601f198616915b82811015620038fb57888601518255948401946001909101908401620038da565b50858210156200391a5787850151600019600388901b60f8161c191681555b5050505050600190811b01905550565b600081516080845262003941608085018262003397565b9050602083015184820360208601526200395c828262003397565b9150506040830151848203604086015262003978828262003397565b9150506001600160401b0360608401511660608501528091505092915050565b602081526000620005f060208301846200392a565b6001600160401b03818116838216019080821115620016275762001627620036d2565b80820180821115620007d557620007d5620036d2565b634e487b7160e01b600052603160045260246000fd5b60ff8281168282160390811115620007d557620007d5620036d256fe6101006040523480156200001257600080fd5b50604051620016e8380380620016e88339810160408190526200003591620002da565b3360e0528551600111156200005d5760405163177d2ee160e01b815260040160405180910390fd5b855160051015620000815760405163338aba5f60e01b815260040160405180910390fd5b846001600160401b0316600003620000ac5760405163ad03f1cd60e01b815260040160405180910390fd5b836001600160401b0316600003620000d75760405163689d52ab60e01b815260040160405180910390fd5b60128360ff161115620000fd576040516375d1861760e01b815260040160405180910390fd5b60006200010b878262000439565b506001600160401b03808616608081815291861660a081815260ff871660c0818152604080516101808101825260066101408201908152656465706c6f7960d01b610160830152815260208082018f905281830197909752606081019590955260009685019690965291830152810185905260e0810184905260016101008201528251808401845260028152616f6b60f01b9281019290925261012081019190915290517f8d4a65917e8045e415c9643f443a95ae6a96297ae94faffcbed1a25dcd3895e991620001dc9162000533565b60405180910390a150505050505062000642565b634e487b7160e01b600052604160045260246000fd5b60005b838110156200022357818101518382015260200162000209565b50506000910152565b600082601f8301126200023e57600080fd5b81516001600160401b03808211156200025b576200025b620001f0565b604051601f8301601f19908116603f01168101908282118183101715620002865762000286620001f0565b81604052838152866020858801011115620002a057600080fd5b620002b384602083016020890162000206565b9695505050505050565b80516001600160401b0381168114620002d557600080fd5b919050565b60008060008060008060c08789031215620002f457600080fd5b86516001600160401b03808211156200030c57600080fd5b6200031a8a838b016200022c565b97506200032a60208a01620002bd565b96506200033a60408a01620002bd565b95506060890151915060ff821682146200035357600080fd5b6080890151919450808211156200036957600080fd5b620003778a838b016200022c565b935060a08901519150808211156200038e57600080fd5b506200039d89828a016200022c565b9150509295509295509295565b600181811c90821680620003bf57607f821691505b602082108103620003e057634e487b7160e01b600052602260045260246000fd5b50919050565b601f8211156200043457600081815260208120601f850160051c810160208610156200040f5750805b601f850160051c820191505b8181101562000430578281556001016200041b565b5050505b505050565b81516001600160401b03811115620004555762000455620001f0565b6200046d81620004668454620003aa565b84620003e6565b602080601f831160018114620004a557600084156200048c5750858301515b600019600386901b1c1916600185901b17855562000430565b600085815260208120601f198616915b82811015620004d657888601518255948401946001909101908401620004b5565b5085821015620004f55787850151600019600388901b60f8161c191681555b5050505050600190811b01905550565b600081518084526200051f81602086016020860162000206565b601f01601f19169290920160200192915050565b60208152600082516101408060208501526200055461016085018362000505565b91506020850151601f198086850301604087015262000574848362000505565b9350604087015191506200059360608701836001600160401b03169052565b60608701516001600160401b0381166080880152915060808701516001600160401b03811660a0880152915060a087015160ff811660c0880152915060c08701519150808685030160e0870152620005ec848362000505565b935060e087015191506101008187860301818801526200060d858462000505565b945080880151925050610120620006278188018415159052565b870151868503909101838701529050620002b3838262000505565b60805160a05160c05160e051610ffc620006ec60003960008181610174015281816103a9015261082c01526000818161011001528181610374015281816107170152610ae4015260008181610202015281816103450152818161043c01528181610477015281816106d90152610aa20152600081816101c801528181610316015281816103f9015281816104b5015281816104ff015281816106aa0152610a730152610ffc6000f3fe608060405234801561001057600080fd5b50600436106100b45760003560e01c80636c134687116100715780636c1346871461015a578063b0d691fe1461016f578063b4c1dd41146101ae578063d5abeb01146101c3578063dd3cb492146101ea578063e2ce9f51146101fd57600080fd5b806318160ddd146100b95780631b57528d146100e95780632cc5ca8414610103578063313ce5671461010b57806335ee5f87146101325780635b1f148114610145575b600080fd5b6001546100cc906001600160401b031681565b6040516001600160401b0390911681526020015b60405180910390f35b6100f1600181565b60405160ff90911681526020016100e0565b6100f1600581565b6100f17f000000000000000000000000000000000000000000000000000000000000000081565b6100cc610140366004610c28565b610224565b61014d610255565b6040516100e09190610cb4565b61016d610168366004610db8565b61039e565b005b6101967f000000000000000000000000000000000000000000000000000000000000000081565b6040516001600160a01b0390911681526020016100e0565b6101b6610793565b6040516100e09190610dec565b6100cc7f000000000000000000000000000000000000000000000000000000000000000081565b61016d6101f8366004610db8565b610821565b6100cc7f000000000000000000000000000000000000000000000000000000000000000081565b60006002826040516102369190610e06565b908152604051908190036020019020546001600160401b031692915050565b60408051608081018252606080825260006020830181905292820183905281019190915260405180608001604052806000805461029190610e22565b80601f01602080910402602001604051908101604052809291908181526020018280546102bd90610e22565b801561030a5780601f106102df5761010080835404028352916020019161030a565b820191906000526020600020905b8154815290600101906020018083116102ed57829003601f168201915b505050505081526020017f00000000000000000000000000000000000000000000000000000000000000006001600160401b031681526020017f00000000000000000000000000000000000000000000000000000000000000006001600160401b031681526020017f000000000000000000000000000000000000000000000000000000000000000060ff16815250905090565b336001600160a01b037f000000000000000000000000000000000000000000000000000000000000000016146103e757604051632fe6450b60e11b815260040160405180910390fd5b60608101516001546001600160401b037f0000000000000000000000000000000000000000000000000000000000000000811691160361043a5760405163d05cb60960e01b815260040160405180910390fd5b7f00000000000000000000000000000000000000000000000000000000000000006001600160401b0316816001600160401b0316111561049757507f00000000000000000000000000000000000000000000000000000000000000005b6001546000906104b19083906001600160401b0316610e72565b90507f00000000000000000000000000000000000000000000000000000000000000006001600160401b0316816001600160401b0316111561052657600154610523906001600160401b03167f0000000000000000000000000000000000000000000000000000000000000000610e99565b91505b600180548391906000906105449084906001600160401b0316610e72565b92506101000a8154816001600160401b0302191690836001600160401b03160217905550816002846040015160405161057d9190610e06565b90815260405190819003602001902080546000906105a59084906001600160401b0316610e72565b92506101000a8154816001600160401b0302191690836001600160401b031602179055507f8d4a65917e8045e415c9643f443a95ae6a96297ae94faffcbed1a25dcd3895e9604051806101400160405280604051806040016040528060048152602001631b5a5b9d60e21b81525081526020016000805461062590610e22565b80601f016020809104026020016040519081016040528092919081815260200182805461065190610e22565b801561069e5780601f106106735761010080835404028352916020019161069e565b820191906000526020600020905b81548152906001019060200180831161068157829003601f168201915b505050505081526020017f00000000000000000000000000000000000000000000000000000000000000006001600160401b031681526020017f00000000000000000000000000000000000000000000000000000000000000006001600160401b03168152602001846001600160401b031681526020017f000000000000000000000000000000000000000000000000000000000000000060ff1681526020018560200151815260200185604001518152602001600115158152602001604051806040016040528060028152602001616f6b60f01b8152508152506040516107869190610eb9565b60405180910390a1505050565b600080546107a090610e22565b80601f01602080910402602001604051908101604052809291908181526020018280546107cc90610e22565b80156108195780601f106107ee57610100808354040283529160200191610819565b820191906000526020600020905b8154815290600101906020018083116107fc57829003601f168201915b505050505081565b336001600160a01b037f0000000000000000000000000000000000000000000000000000000000000000161461086a57604051632fe6450b60e11b815260040160405180910390fd5b80606001516001600160401b03166002826020015160405161088c9190610e06565b908152604051908190036020019020546001600160401b031610156108c457604051631e9acf1760e31b815260040160405180910390fd5b8060600151600282602001516040516108dd9190610e06565b90815260405190819003602001902080546000906109059084906001600160401b0316610e99565b92506101000a8154816001600160401b0302191690836001600160401b031602179055508060600151600282604001516040516109429190610e06565b908152604051908190036020019020805460009061096a9084906001600160401b0316610e72565b92506101000a8154816001600160401b0302191690836001600160401b031602179055507f8d4a65917e8045e415c9643f443a95ae6a96297ae94faffcbed1a25dcd3895e9604051806101400160405280604051806040016040528060088152602001673a3930b739b332b960c11b8152508152602001600080546109ee90610e22565b80601f0160208091040260200160405190810160405280929190818152602001828054610a1a90610e22565b8015610a675780601f10610a3c57610100808354040283529160200191610a67565b820191906000526020600020905b815481529060010190602001808311610a4a57829003601f168201915b505050505081526020017f00000000000000000000000000000000000000000000000000000000000000006001600160401b031681526020017f00000000000000000000000000000000000000000000000000000000000000006001600160401b0316815260200183606001516001600160401b031681526020017f000000000000000000000000000000000000000000000000000000000000000060ff1681526020018360200151815260200183604001518152602001600115158152602001604051806040016040528060028152602001616f6b60f01b815250815250604051610b539190610eb9565b60405180910390a150565b634e487b7160e01b600052604160045260246000fd5b604051608081016001600160401b0381118282101715610b9657610b96610b5e565b60405290565b600082601f830112610bad57600080fd5b81356001600160401b0380821115610bc757610bc7610b5e565b604051601f8301601f19908116603f01168101908282118183101715610bef57610bef610b5e565b81604052838152866020858801011115610c0857600080fd5b836020870160208301376000602085830101528094505050505092915050565b600060208284031215610c3a57600080fd5b81356001600160401b03811115610c5057600080fd5b610c5c84828501610b9c565b949350505050565b60005b83811015610c7f578181015183820152602001610c67565b50506000910152565b60008151808452610ca0816020860160208601610c64565b601f01601f19169290920160200192915050565b602081526000825160806020840152610cd060a0840182610c88565b905060208401516001600160401b038082166040860152806040870151166060860152505060ff60608501511660808401528091505092915050565b600060808284031215610d1e57600080fd5b610d26610b74565b905081356001600160401b0380821115610d3f57600080fd5b610d4b85838601610b9c565b83526020840135915080821115610d6157600080fd5b610d6d85838601610b9c565b60208401526040840135915080821115610d8657600080fd5b610d9285838601610b9c565b6040840152606084013591508082168214610dac57600080fd5b50606082015292915050565b600060208284031215610dca57600080fd5b81356001600160401b03811115610de057600080fd5b610c5c84828501610d0c565b602081526000610dff6020830184610c88565b9392505050565b60008251610e18818460208701610c64565b9190910192915050565b600181811c90821680610e3657607f821691505b602082108103610e5657634e487b7160e01b600052602260045260246000fd5b50919050565b634e487b7160e01b600052601160045260246000fd5b6001600160401b03818116838216019080821115610e9257610e92610e5c565b5092915050565b6001600160401b03828116828216039080821115610e9257610e92610e5c565b6020815260008251610140806020850152610ed8610160850183610c88565b91506020850151601f1980868503016040870152610ef68483610c88565b935060408701519150610f1460608701836001600160401b03169052565b60608701516001600160401b0381166080880152915060808701516001600160401b03811660a0880152915060a087015160ff811660c0880152915060c08701519150808685030160e0870152610f6b8483610c88565b935060e08701519150610100818786030181880152610f8a8584610c88565b945080880151925050610120610fa38188018415159052565b870151868503909101838701529050610fbc8382610c88565b969550505050505056fea2646970667358221220464c813b35ed67c7802881006295f966384d595d73bd741da199dca94d6c325764736f6c63430008110033a264697066735822122032738ab57e4d2ea0d4bf4968a86ca1d388d24e83c333e853369020bfbbfcf96464736f6c63430008110033",
    "linkReferences": {}
  },
  "methodIdentifiers": {
    "entryPoint(string,string)": "b0586ada",
    "getAllSRC20Balance(uint256,uint256,string)": "7887dddd",
    "getSRC20AllTokenInfo(uint256,uint256)": "888de4f0",
    "getSRC20Balance(string,string)": "8a689e8f",
    "getSRC20TokenInfo(string)": "ccaf8a95",
    "plugin()": "ef01df4f",
    "src20s(string)": "7b9d878e"
  },
  "id": 24
}